:020000040000FA
:100000000C9462000C948A000C948A000C948A0070
:100010000C948A000C948A000C948A000C948A0038
:100020000C948A000C948A000C948A000C948A0028
:100030000C948A000C948A000C948A000C948A0018
:100040000C94F9020C948A000C9469030C944303F9
:100050000C948A000C948A000C948A000C948A00F8
:100060000C948A000C948A000000000024002700F1
:100070002A000000000023002600290000000000E4
:10008000250028002B0004040404040404040202D4
:100090000202020203030303030301020408102007
:1000A0004080010204081020010204081020000012
:1000B0000008000201000003040700000000000027
:1000C0000000E30511241FBECFEFD8E0DEBFCDBF97
:1000D00012E0A0E0B1E0E4E7FCE002C005900D9280
:1000E000A034B107D9F722E0A0E4B2E001C01D922C
:1000F000A13FB207E1F710E0C2E6D0E004C02197CB
:10010000FE010E943206C136D107C9F70E949B0347
:100110000C9438060C940000833081F028F4813070
:1001200099F08230A9F008958730A9F08830C9F09D
:100130008430B1F4809180008F7D03C08091800075
:100140008F7780938000089584B58F7784BD08955C
:1001500084B58F7DFBCF8091B0008F778093B00006
:1001600008958091B0008F7DF9CF1F93CF93DF93D7
:10017000EAEBF0E09491E6EAF0E0D491E2E9F0E015
:10018000C491CC23B9F0182F992319F0892F0E941C
:100190008C00EC2FF0E0EE0FFF1FE458FF4FA5910D
:1001A000B4918FB7F894EC91111108C0D095DE236B
:1001B000DC938FBFDF91CF911F910895DE2BF8CF95
:1001C000CF93DF93282F30E0F901E255FF4F849160
:1001D000F901E656FF4FD491F901EA57FF4FC49158
:1001E000CC23A1F081110E948C00EC2FF0E0EE0FE7
:1001F000FF1FEE58FF4FA591B491EC91ED2381E0E4
:1002000090E009F480E0DF91CF91089580E090E0E4
:10021000FACF3FB7F8948091500290915102A0918B
:100220005202B091530226B5A89B05C02F3F19F08A
:100230000196A11DB11D3FBFBA2FA92F982F882766
:10024000BC01CD01620F711D811D911D42E0660F41
:10025000771F881F991F4A95D1F708958F929F9213
:10026000AF92BF92CF92DF92EF92FF924B015C016F
:100270000E9409016B017C010E9409016C197D0932
:100280008E099F09683E734081059105A8F321E01E
:10029000821A9108A108B10888EEC80E83E0D81E22
:1002A000E11CF11C81149104A104B10429F7FF9011
:1002B000EF90DF90CF90BF90AF909F908F90089578
:1002C0002FB7F89460914C0270914D0280914E02CC
:1002D00090914F022FBF0895AF92BF92CF92DF92BD
:1002E000EF92FF920F931F93CF93DF936C017B01EB
:1002F0008B01040F151FEB015E01AE18BF08C0177C
:10030000D10759F06991D601ED91FC910190F081EE
:10031000E02DC6010995892B79F7C501DF91CF91B1
:100320001F910F91FF90EF90DF90CF90BF90AF9013
:100330000895FC01538D448D252F30E0842F90E0EB
:10034000821B930B541710F0CF96089501970895D0
:10035000FC01918D828D981761F0A28DAE0FBF2F99
:10036000B11D5D968C91928D9F5F9F73928F90E0EF
:1003700008958FEF9FEF0895FC01918D828D98175E
:1003800031F0828DE80FF11D858D90E008958FEF9B
:100390009FEF0895FC01918D228D892F90E0805C64
:1003A0009F4F821B91098F739927089584E592E0EE
:1003B0000E94CA0121E0892B09F420E0822F0895D0
:1003C00080E090E0892B29F00E94D60181110C94E5
:1003D00000000895FC01A48DA80FB92FB11DA35AE8
:1003E000BF4F2C91848D90E001968F739927848F55
:1003F000A689B7892C93A089B1898C918370806478
:100400008C93938D848D981306C00288F389E02D18
:1004100080818F7D80830895EF92FF920F931F93C9
:10042000CF93DF93EC0181E0888F9B8D8C8D9813A7
:100430001AC0E889F989808185FF15C09FB7F894B3
:10044000EE89FF896083E889F989808183708064FF
:1004500080839FBF81E090E0DF91CF911F910F914A
:10046000FF90EF900895F62E0B8D10E00F5F1F4F59
:100470000F731127E02E8C8D8E110CC00FB607FC68
:10048000FACFE889F989808185FFF5CFCE010E94F6
:10049000EA01F1CFEB8DEC0FFD2FF11DE35AFF4F79
:1004A000F0829FB7F8940B8FEA89FB898081806284
:1004B000CFCFCF93DF93EC01888D8823B9F0AA8941
:1004C000BB89E889F9898C9185FD03C0808186FD0F
:1004D0000DC00FB607FCF7CF8C9185FFF2CF80815E
:1004E00085FFEDCFCE010E94EA01E9CFDF91CF91E8
:1004F0000895FC0101900020E9F73197AF01481BF6
:10050000590BBC0184E592E00C946C018F929F9290
:10051000AF92BF920F931F93CF93DF93CDB7DEB708
:10052000A1970FB6F894DEBF0FBECDBF19A242301F
:1005300008F44AE08E010F5D1F4F842E912CB12CE0
:10054000A12CA50194010E941006E62FB901CA0151
:10055000EA30F4F4E05DD801EE938D01232B242BD7
:10056000252B79F790E080E0109719F0CD010E94DB
:100570007902A1960FB6F894DEBF0FBECDBFDF9112
:10058000CF911F910F91BF90AF909F908F90089542
:10059000E95CE1CFCF92DF92EF92FF92CF93DF93AE
:1005A0006B017C016DE284E592E00E940C02EC019B
:1005B00066277727CB016C197D098E099F094AE0D0
:1005C0000E9486028C0F9D1FDF91CF91FF90EF90CC
:1005D000DF90CF900895CF93DF930E947902EC01D2
:1005E00086E191E00E9479028C0F9D1FDF91CF91EF
:1005F00008951F920F920FB60F9211242F933F93DD
:100600008F939F93AF93BF9380914C0290914D0233
:10061000A0914E02B0914F0230914B0223E0230F84
:100620002D3758F50196A11DB11D20934B028093E3
:100630004C0290934D02A0934E02B0934F028091D2
:10064000500290915102A0915202B0915302019632
:10065000A11DB11D8093500290935102A0935202AC
:10066000B0935302BF91AF919F918F913F912F9182
:100670000F900FBE0F901F90189526E8230F02963B
:10068000A11DB11DD2CF1F920F920FB60F92112450
:100690002F933F934F935F936F937F938F939F938A
:1006A000AF93BF93EF93FF9384E592E00E94EA013A
:1006B000FF91EF91BF91AF919F918F917F916F913A
:1006C0005F914F913F912F910F900FBE0F901F9010
:1006D00018951F920F920FB60F9211242F938F939C
:1006E0009F93EF93FF93E0916402F0916502808104
:1006F000E0916A02F0916B0282FD1BC090818091B3
:100700006D028F5F8F7320916E02821741F0E0912E
:100710006D02F0E0EC5AFD4F958F80936D02FF91D2
:10072000EF919F918F912F910F900FBE0F901F907F
:1007300018958081F4CF789484B5826084BD84B5A7
:10074000816084BD85B5826085BD85B5816085BDCC
:1007500080916E00816080936E0010928100809184
:10076000810082608093810080918100816080930C
:100770008100809180008160809380008091B10031
:1007800084608093B1008091B00081608093B0005C
:1007900080917A00846080937A0080917A008260F0
:1007A00080937A0080917A00816080937A008091B2
:1007B0007A00806880937A001092C100E6EAF0E047
:1007C0002491E2E9F0E08491882399F090E0880F89
:1007D000991FFC01E859FF4FA591B491FC01E45821
:1007E000FF4F859194918FB7F894EC91E22BEC93A5
:1007F0008FBFECE9F0E02491E8E8F0E084918823F1
:10080000C1F090E0880F991FFC01E859FF4FC59196
:10081000D491FC01E458FF4FA591B4919FB7F8948F
:100820003881822F809583238883EC91E22BEC938F
:100830009FBFE0916402F091650282E08083E091C5
:100840006002F09161021082E0916202F091630215
:100850008FEC808310926C02E0916802F091690243
:1008600086E08083E0916602F0916702808180617A
:100870008083E0916602F0916702808188608083C6
:10088000E0916602F0916702808180688083E09148
:100890006602F091670280818F7D808389E191E01B
:1008A0000E94EB0281E391E00E94EB0288E191E07B
:1008B0000E94EB0222242394312C412C92EC592EDD
:1008C00066246394712C20E8C22E25E2D22EE12CFE
:1008D000F12C82E00E94E000EC01892B09F0D7C0E6
:1008E0008091410290914202A0914302B091440252
:1008F000892B8A2B8B2B51F40E946001609341025B
:100900007093420280934302909344020E946001DC
:100910000091410210914202209143023091440221
:10092000601B710B820B930B693B7B40810591052A
:1009300008F4B7C0809140028111B3C08091490290
:1009400090914A0221E020934002892B09F022C1B4
:1009500030924A022092490284E592E00E945902B4
:100960000AE010E08CE00E94E00021E0892B09F011
:1009700020E0822F0E94B50062E370E080E090E00A
:100980000E942E010150110969F780E00E94B50014
:1009900086E191E00E94790286E591E00E94EB02F7
:1009A00080E791E00E94EB0282E891E00E94EB0276
:1009B00085E991E00E94EB028AEA91E00E94EB0255
:1009C0000E9460014B015C010E9460016819790975
:1009D0008A099B096838734181059105F0F482E02A
:1009E0000E94E000892B81F762E370E080E090E0F4
:1009F0000E942E01219682E00E94E000892BD9F30B
:100A000081E00E94B50062E370E080E090E00E9427
:100A10002E0180E00E94B500D7CFC130D10509F08A
:100A200090C0C0920001D0920101E0920201F092C8
:100A3000030181E00E94B50064EF71E080E090E086
:100A40000E942E0180E00E94B50088E191E00E94A2
:100A5000EB0285EC91E00E947902609100017091B7
:100A60000101809102019091030197FF8FC00E94C4
:100A7000CA0286E191E00E94790287ED91E00E942E
:100A8000EB0264E670E080E090E00E942E0110929C
:100A900041021092420210924302109244021092BC
:100AA00040028091490290914A02892BE9F50E9407
:100AB0006001009145021091460220914702309159
:100AC0004802601B710B820B930B693B7B408105D5
:100AD000910550F10E9460016093450270934602B7
:100AE000809347029093480281E00E94B50064E63B
:100AF00070E080E090E00E942E0180E00E94B5004E
:100B000082E292E00E9479026091000170910101FD
:100B1000809102019091030197FF51C00E94CA0287
:100B200086E191E00E94790280E090E0892B09F44F
:100B3000D0CE0E94D601882309F4CBCE0E940000BB
:100B4000C8CE22970CF481CF40920001509201014F
:100B5000609202017092030181E00E94B5006AEF89
:100B600070E080E090E00E942E0180E00E94B500DD
:100B70006AEF70E080E090E00E942E0181E00E9428
:100B8000B5006AEF70E080E090E05ACF4AE00E9442
:100B900086026FCF10924A021092490286E191E0DC
:100BA0000E94790289E191E00E94EB028CEF91E0D2
:100BB0000E94EB0288E191E00E94EB0268CF4AE0DC
:100BC0000E948602ADCFE4E5F2E01382128288EE45
:100BD00093E0A0E0B0E084839583A683B78388E0A8
:100BE00091E09183808385EC90E09587848784EC05
:100BF00090E09787868780EC90E0918B808B81ECEA
:100C000090E0938B828B82EC90E0958B848B86ECCA
:100C100090E0978B868B118E128E138E148E089512
:100C2000A1E21A2EAA1BBB1BFD010DC0AA1FBB1FF0
:100C3000EE1FFF1FA217B307E407F50720F0A21B62
:100C4000B30BE40BF50B661F771F881F991F1A94CF
:100C500069F760957095809590959B01AC01BD01F9
:100C6000CF010895EE0FFF1F0590F491E02D099438
:100C7000F894FFCF80250000000000000C026C01FA
:100C800099015902CA01A801BC010D0A002D2D2DA0
:100C90002043484520444F2056414E2048414E486D
:100CA000202D2D2D004E68616E20676975206E75B0
:100CB00074203320676961792064652076616F2034
:100CC0004361752048696E682E002D2D2D20434804
:100CD0004520444F2048494555204348494E482027
:100CE0002D2D2D004D6F692063686F6E2063686540
:100CF00020646F3A20002031206E68616E203A2017
:100D00003936303020627073002032206E68616E98
:100D1000203A203131353230302062707300284261
:100D2000616E20636F2035206769617920646520DA
:100D300063686F6E2E2E2E290044612063686F6EEB
:100D400020746F6320646F203A20004E68616E202B
:100D5000676975206E757420337320646520717522
:100D600061792076652076616E2068616E682E005C
:100D70004E68616E20676975206E75742033206738
:100D80006961792064652076616F20436175204830
:100D9000696E682E0A0048656C6C6F20496F542E8E
:100DA00020546F6320646F206869656E20746169E8
:040DB0003A200000E5
:107E0000112484B714BE81FFF0D085E080938100F7
:107E100082E08093C00088E18093C10086E0809377
:107E2000C20080E18093C4008EE0C9D0259A86E02C
:107E300020E33CEF91E0309385002093840096BBD3
:107E4000B09BFECF1D9AA8958150A9F7CC24DD24C4
:107E500088248394B5E0AB2EA1E19A2EF3E0BF2EE7
:107E6000A2D0813461F49FD0082FAFD0023811F036
:107E7000013811F484E001C083E08DD089C08234E0
:107E800011F484E103C0853419F485E0A6D080C0E4
:107E9000853579F488D0E82EFF2485D0082F10E0AE
:107EA000102F00270E291F29000F111F8ED06801E7
:107EB0006FC0863521F484E090D080E0DECF843638
:107EC00009F040C070D06FD0082F6DD080E0C81688
:107ED00080E7D80618F4F601B7BEE895C0E0D1E017
:107EE00062D089930C17E1F7F0E0CF16F0E7DF06D8
:107EF00018F0F601B7BEE89568D007B600FCFDCFD4
:107F0000A601A0E0B1E02C9130E011968C91119780
:107F100090E0982F8827822B932B1296FA010C0160
:107F200087BEE89511244E5F5F4FF1E0A038BF0790
:107F300051F7F601A7BEE89507B600FCFDCF97BE46
:107F4000E89526C08437B1F42ED02DD0F82E2BD052
:107F50003CD0F601EF2C8F010F5F1F4F84911BD097
:107F6000EA94F801C1F70894C11CD11CFA94CF0C13
:107F7000D11C0EC0853739F428D08EE10CD085E9AC
:107F80000AD08FE07ACF813511F488E018D01DD067
:107F900080E101D065CF982F8091C00085FFFCCF94
:107FA0009093C60008958091C00087FFFCCF809118
:107FB000C00084FD01C0A8958091C6000895E0E648
:107FC000F0E098E1908380830895EDDF803219F02E
:107FD00088E0F5DFFFCF84E1DECF1F93182FE3DFCA
:107FE0001150E9F7F2DF1F91089580E0E8DFEE27F6
:047FF000FF270994CA
:027FFE00040479
:00000001FF
