:100000000C946D000C9495000C9495000C94950044
:100010000C9495000C9495000C9495000C94FC069F
:100020000C9495000C9495000C9495000C949500FC
:100030000C9495000C9495000C9495000C949500EC
:100040000C94B2060C9495000C9495000C949500B9
:100050000C9495000C9495000C9495000C949500CC
:100060000C9458070C94950031353A33313A3239B3
:10007000004E6F76203133203230323500020000DE
:100080000000240027002A000000000025002800AE
:100090002B000000000023002600290004040404B3
:1000A0000404040402020202020203030303030322
:1000B00001020408102040800102040810200102FF
:1000C00004081020000000080002010000030407DB
:1000D0000000000000000000770811241FBECFEFD1
:1000E000D8E0DEBFCDBF22E0A8EAB1E001C01D929A
:1000F000A83AB207E1F711E0A0E0B1E0EAE5FEE1DD
:1001000002C005900D92A83AB107D9F710E0CDE6EC
:10011000D0E004C02197FE010E94000ECC36D1072A
:10012000C9F70E9498080C942B0F0C9400000895B6
:100130000895833081F028F4813099F08230A9F05D
:1001400008958730A9F08830C9F08430B1F48091E7
:1001500080008F7D03C0809180008F778093800026
:10016000089584B58F7784BD089584B58F7DFBCFC6
:100170008091B0008F778093B00008958091B00097
:100180008F7DF9CFCF93DF93282F30E0F901EC5327
:10019000FF4F8491F901E055FF4FD491F901E456E6
:1001A000FF4FC491CC23A1F081110E949900EC2F44
:1001B000F0E0EE0FFF1FEE56FF4FA591B491EC91CA
:1001C000ED2381E090E009F480E0DF91CF91089584
:1001D00080E090E0FACF1F93CF93DF93282F30E099
:1001E000F901EC53FF4F8491F901E055FF4FD49191
:1001F000F901E456FF4FC491CC23A9F0162F8111C9
:100200000E949900EC2FF0E0EE0FFF1FE857FF4F20
:10021000A591B4918FB7F894EC91111108C0D095C5
:10022000DE23DC938FBFDF91CF911F910895DE2BEA
:10023000F8CFCF93DF9390E0FC01E055FF4F24917E
:1002400084569F4FFC0184918823D1F090E0880F61
:10025000991FFC01E258FF4FA591B491FC01E857AA
:10026000FF4FC591D491623071F49FB7F8943C91DF
:10027000822F809583238C93E8812E2B28839FBF28
:10028000DF91CF9108958FB7F894EC912E2B2C939A
:100290008FBFF6CF3FB7F894809111029091120270
:1002A000A0911302B091140226B5A89B05C02F3F60
:1002B00019F00196A11DB11D3FBFBA2FA92F982F8C
:1002C0008827BC01CD01620F711D811D911D42E087
:1002D000660F771F881F991F4A95D1F708958F924F
:1002E0009F92AF92BF92CF92DF92EF92FF924B011B
:1002F0005C010E944A016B017C010E944A016C1959
:100300007D098E099F09683E734081059105A8F318
:1003100021E0821A9108A108B10888EEC80E83E096
:10032000D81EE11CF11C81149104A104B10429F729
:10033000FF90EF90DF90CF90BF90AF909F908F9005
:1003400008959091000189130BC0EDE7F0E0E4916E
:100350009FEF90930001E13049F028F0E23061F026
:1003600060E00C94EB0010926E00FACF90916F0059
:100370009D7F90936F00F4CF909170009D7F90933C
:10038000700091E09093B0009091B100987F9460DC
:100390009093B1001092B300E3CFAF92BF92CF928F
:1003A000DF92EF92FF920F931F93CF93DF936C0135
:1003B0007B018B01040F151FEB015E01AE18BF0816
:1003C000C017D10759F06991D601ED91FC910190C8
:1003D000F081E02DC6010995892B79F7C501DF91E0
:1003E000CF911F910F91FF90EF90DF90CF90BF9032
:1003F000AF9008950895FC01908190539A3008F0D1
:1004000090E0818180532AE0929F800D112408950D
:100410002091C901260F3327331F21323105ECF417
:1004200020916102FC0190E080E0243069F082E0DC
:100430000895A091C9012191AC0147555E4FA40FC9
:10044000B52FB11D2C930196861798F38091C901A1
:10045000680F6093C90180E0089581E008951092CB
:10046000610281E08093600210923B0261E082E1D0
:100470000E94EB0061E083E10E94EB00E9EBF0E019
:1004800080818E7F808380818D7F808388E48093CC
:10049000B80085E48093BC00089510921A0210926F
:1004A00019021092680210928A020E942F0287E9B4
:1004B00090E0909318028093170288E990E090935F
:1004C0001602809315020895CF93DF9391E09093E5
:1004D000A8018823B9F0C091B800D091BA008091EA
:1004E000BC008A7B8093BC0060E082E10E94EB004C
:1004F00060E083E10E94EB000E942F02D093BA00DB
:10050000C093B800DF91CF9108958F929F92AF92E0
:10051000BF92CF92DF92EF92FF920F931F93CF93F0
:10052000DF93D0918A02D13208F0D7C0182FC09142
:1005300089020E944A016B017C0180916102811154
:100540006BC082E080936102109360028FEF809312
:100550005F0210925E02D0935D02A9E6B2E0EDE385
:10056000F2E080E0D81391C010923C0280913C02EE
:10057000CC0FC82BC0933C0280913B02813009F024
:1005800088C010923B020E944A016B017C0180915D
:100590003C028093BB008091630290916402A09121
:1005A0006502B0916602892B8A2B8B2BA1F00E94E9
:1005B0004A0100916302109164022091650230911A
:1005C00066026C197D098E099F090617170728070F
:1005D000390708F442C08091BC0083FDD8CF85EC78
:1005E0008093BC000E944A016B017C0180916102F2
:1005F000823009F450C080915F028F3F09F46FC0D0
:1006000080915F02803209F46CC080915F02803378
:1006100009F469C084E026C080916302909164026D
:10062000A0916502B0916602892B8A2B8B2B09F46D
:1006300084CF0E944A018090630290906402A0904F
:100640006502B09066026C197D098E099F098616B5
:100650009706A806B90608F070CF809162020E9442
:10066000640285E01092680210928A02109267027A
:10067000DF91CF911F910F91FF90EF90DF90CF907E
:10068000BF90AF909F908F9008959D9191938F5FB1
:1006900069CF85EEA5CF8091630290916402A0910D
:1006A0006502B0916602892B8A2B8B2B09F49ECFB1
:1006B0000E944A0100916302109164022091650238
:1006C000309166026C197D098E099F09061717077C
:1006D0002807390708F08ACFC0CF81E0C3CF80E078
:1006E000C1CF82E0BFCF83E0BDCF1F93CF93DF9315
:1006F000EA01122FDC0111968D919C91DC01ED91A4
:10070000FC910280F381E02D0995C817D90729F4DF
:10071000812F0E94850291E0811190E0892FDF9165
:10072000CF911F910895CF93DF93EC018B818823A4
:10073000A1F0888191E090936702809389021092E2
:10074000680210928A0281E00E94850291E0811184
:1007500090E0892FDF91CF9108950E944D0281E0B2
:100760008B83CE010E949303982F8111E2CFF1CFAA
:100770000895E0911A0280911902E81730F4F0E030
:10078000E55EFD4F808190E008958FEF9FEF089523
:1007900090911A02809119022FEF3FEF981748F4B9
:1007A000E92FF0E0E55EFD4F208130E09F5F909300
:1007B0001A02C90108958091190290911A02891BA9
:1007C000990B0895CF92DF92EF92FF920F931F93B0
:1007D000CF93DF937C01CB018A0120916702222312
:1007E00089F0EB016B01C40ED51ECC15DD0569F057
:1007F0006991D701ED91FC910190F081E02DC70145
:100800000995F3CF642F0E940802C801DF91CF91B0
:100810001F910F91FF90EF90DF90CF900895CF93AD
:10082000DF931F92CDB7DEB7698320916702222341
:10083000F9F020918A02203258F021E030E0FC01EA
:100840003383228390E080E00F90DF91CF91089571
:1008500080916802E82FF0E0E759FD4F998190837D
:100860008F5F8093680280938A0281E090E0ECCFF2
:1008700061E0CE0101960E940802F7CFFC012481BD
:1008800031E030936702209389021092680210923F
:100890008A028485682B8BE892E00E940F0481E035
:1008A0000C94850290E080E008958F929F92AF9221
:1008B000BF920F931F93CF93DF93CDB7DEB7A1976E
:1008C0000FB6F894DEBF0FBECDBF19A2423008F4B8
:1008D0004AE08E010F5D1F4F842E912CB12CA12C6C
:1008E000A50194010E94DE0DE62FB901CA01EA308C
:1008F00044F5E05DD801EE938D01232B242B252BAD
:1009000079F790E080E0109769F0FD0101900020F8
:10091000E9F73197AF014A1B5B0BBD0187E992E014
:100920000E94CD01A1960FB6F894DEBF0FBECDBFD9
:10093000DF91CF911F910F91BF90AF909F908F90BB
:100940000895E95CD7CFFC0101900020E9F73197C9
:10095000AF01481B590BBC0187E992E00C94CD0113
:100960002F923F924F925F926F927F928F929F92BF
:10097000AF92BF92CF92DF92EF92FF920F931F93AD
:10098000CF93DF935C011B016A01F12CE12CD501AF
:1009900014968D919C9186010E191F09801791075D
:1009A00008F48C01F501D0810E944A012B013C0121
:1009B00080916102811172C0C02F013208F0C0E243
:1009C000F1E0F093610221E0C601801B910BE81673
:1009D000F90608F420E0209360028FEF80935F0215
:1009E00010925E028C0F80935D02A1E0A0933C0206
:1009F00080913C02DD0FD82BD0933C0280913B02CA
:100A0000813009F090C010923B020E944A012B01F4
:100A10003C0180913C028093BB00809163029091E5
:100A20006402A0916502B0916602892B8A2B8B2B00
:100A3000A1F00E944A01209163023091640240912A
:100A4000650250916602641975098609970926178F
:100A500037074807590708F442C08091BC0083FD5E
:100A6000D8CFB5ECB093BC000E944A012B013C01E9
:100A700080916102813009F45AC080915E028C1726
:100A800010F4C0915E02ADE3B2E0EBE1F2E080E091
:100A90008C1751F19D9191938F5FFACF80916302F2
:100AA00090916402A0916502B0916602892B8A2B15
:100AB0008B2B09F47DCF0E944A0120916302309173
:100AC00064024091650250916602641975098609B5
:100AD0009709261737074807590708F069CF80910B
:100AE00062020E946402C0E010921A02C0931902CE
:100AF000C017110609F057C041018E0C9F1CE4017C
:100B0000CE01881999098017910798F5D50111969A
:100B10008D919C91DC01ED91FC910284F385E02D97
:100B200009958993EDCFE5EEE093BC009DCF8091D0
:100B3000630290916402A0916502B0916602892BD4
:100B40008A2B8B2B09F494CF0E944A0120916302D7
:100B500030916402409165025091660264197509F2
:100B600086099709261737074807590708F080CFE5
:100B7000B6CFE00EF11EEC14FD0408F408CF81E0BE
:100B8000DF91CF911F910F91FF90EF90DF90CF9069
:100B9000BF90AF909F908F907F906F905F904F909D
:100BA0003F902F90089580E0EBCF0F931F93CF934A
:100BB0008C01C62F0E943E046C2F6460C8010E9405
:100BC0003E046C2F6B7FC8010E943E0483EC90E0D2
:100BD0000197F1F7CF911F910F9108950F931F93F4
:100BE000CF93DF938C01D62FC42F607F642B0E949C
:100BF000D50580E1D89FB00111246C2BC801DF918D
:100C0000CF911F910F910C94D50540E0682F87E993
:100C100092E00C94EE05CF93DF93CDB7DEB7289723
:100C20000FB6F894DEBF0FBECDBF98E0E9E0F1E06B
:100C3000DE01119601900D929A95E1F790919F0235
:100C4000961708F46FEF70E0660F771F21E030E031
:100C50002C0F3D1F620F731FFB019081890F80686D
:100C600028960FB6F894DEBF0FBECDBFDF91CF91AF
:100C70000C94050681E00E9405068BE39FE1019735
:100C8000F1F78091A002882321F060E080E00C94CD
:100C90000B06089541E00E94EE0581E090E0089582
:100CA000CF92DF92EF92FF926C018AE0C816D104D6
:100CB00024F48FE291E00E94A3040D2C000CEE08B6
:100CC000FF084AE0C701B601F7FE0EC041E06DE241
:100CD00087E992E00E94EE0566277727CB016C1921
:100CE0007D098E099F094AE0FF90EF90DF90CF9039
:100CF0000C94550485ED8093BC0080916302909123
:100D00006402A0916502B09166020796A11DB11D13
:100D100023E0B695A795979587952A95D1F72091C9
:100D2000BC0024FD03C0109261020895409163024B
:100D3000509164026091650270916602452B462BCA
:100D4000472B69F30097A105B10541F02AE22A95E6
:100D5000F1F700C00197A109B109E1CF80916202CA
:100D60000C9464021F920F920FB60F9211242F93CE
:100D70003F938F939F93AF93BF9380910D02909178
:100D80000E02A0910F02B091100230910C0223E0EC
:100D9000230F2D3758F50196A11DB11D20930C028C
:100DA00080930D0290930E02A0930F02B093100255
:100DB0008091110290911202A0911302B09114023D
:100DC0000196A11DB11D8093110290931202A09370
:100DD0001302B0931402BF91AF919F918F913F91F5
:100DE0002F910F900FBE0F901F90189526E8230F9C
:100DF0000296A11DB11DD2CF1F920F920FB60F9276
:100E000011242F933F934F935F936F937F938F930F
:100E10009F93AF93BF93EF93FF938091F1019091D4
:100E2000F201A091F301B091F401892B8A2B8B2B55
:100E3000D1F19091EC01E091ED01F091EE01808112
:100E4000892780838091F1019091F201A091F301B3
:100E5000B091F401181619061A061B069CF480912D
:100E6000F1019091F201A091F301B091F401019789
:100E7000A109B1098093F1019093F201A093F301CC
:100E8000B093F401FF91EF91BF91AF919F918F913A
:100E90007F916F915F914F913F912F910F900FBE76
:100EA0000F901F901895809100010E94A101EACF38
:100EB0001F920F920FB60F9211242F933F934F93CF
:100EC0005F936F937F938F939F93AF93BF93EF93B2
:100ED000FF938091B900887F803609F44AC0F0F50D
:100EE000883209F4A7C018F5803109F49BC0B8F422
:100EF000882309F4F9C0883009F494C0FF91EF9178
:100F0000BF91AF919F918F917F916F915F914F9121
:100F10003F912F910F900FBE0F901F901895883121
:100F200009F488C0803251F780935F0214C0803486
:100F300009F49DC040F48033B9F38833F9F6809307
:100F40005F0285ECB0C0803509F485C0883509F4AE
:100F500096C0883499F60E947A06D0CF883909F471
:100F60008CC038F5883729F050F4883611F0803776
:100F700029F683E0809361021092EB0157C0883814
:100F800009F47BC0803919F0803809F0B7CF80911F
:100F9000EB01803208F071C0E091EB0181E08E0F2F
:100FA0008093EB018091BB00F0E0E553FE4F80831E
:100FB0003DC0803B39F0E0F4803A09F479C0883ACA
:100FC00009F09CCF84E0809361021092CA011092D4
:100FD000C901E0911702F091180209958091C901A9
:100FE00081110FC081E08093C9011092A90109C04D
:100FF000803C09F4A6CF883C09F4A3CF883B09F0D4
:101000007DCFE091CA0181E08E0F8093CA01F0E0AC
:10101000E755FE4F80818093BB009091CA0180917B
:10102000C90129C080913C028093BB0085EC80936C
:10103000BC0064CF90915E0280915D02981758F5D4
:10104000E0915E0281E08E0F80935E02F0E0E35C4F
:10105000FD4F8081E9CFE0915E0281E08E0F8093A9
:101060005E028091BB00F0E0E35CFD4F80839091D5
:101070005E0280915D029817C8F285E8D8CFE091B2
:101080005E0281E08E0F80935E028091BB00F0E0F3
:10109000E35CFD4F80838091600281115CCF81E031
:1010A00080933B0284EA8093BC001092610226CFB9
:1010B00085EC8093BC00109261028091EB0180323C
:1010C00030F4E091EB01F0E0E553FE4F10826091C7
:1010D000EB0170E0E0911502F09116028BEC91E0CB
:1010E00009951092EB010ACF10925F0234CFEBE822
:1010F000F2E01382128288EE93E0A0E0B0E08483F5
:101100009583A683B78385E191E091838083E7E9A6
:10111000F2E01382128287E291E09183808311864C
:1011200087E2848380E1828782E083871486089542
:10113000CF93DF93CDB7DEB72D970FB6F894DEBF10
:101140000FBECDBF789484B5826084BD84B58160C4
:1011500084BD85B5826085BD85B5816085BD809182
:101160006E00816080936E001092810080918100FA
:1011700082608093810080918100816080938100F2
:10118000809180008160809380008091B1008460B4
:101190008093B1008091B00081608093B000809115
:1011A0007A00846080937A0080917A0082608093D4
:1011B0007A0080917A00816080937A0080917A0031
:1011C000806880937A001092C10062E082E00E9401
:1011D000190162E083E00E94190162E084E00E944C
:1011E000190162E085E00E94190161E086E00E9439
:1011F00019010E944D0210929C028091A20282303D
:1012000018F098E090939C0280939F0262E370E054
:1012100080E090E00E946F016091A30287E992E074
:101220000E943E0468EE73E080E090E00E946F014F
:1012300060E387E992E00E94D5058BE4E82E86E41E
:10124000F82EC7010197F1F760E387E992E00E9469
:10125000D505C7010197F1F760E387E992E00E94A5
:10126000D50583E592E00197F1F760E287E992E026
:101270000E94D50580919C0280620E94050684E050
:1012800080939D028CE00E9405060E943A0682E04F
:1012900080939E0286E00E94050682E00E94050679
:1012A0008BE39FE10197F1F788E08093A30260E070
:1012B00087E992E00E943E0480910A0290910B021D
:1012C000009711F00E94A20E86E090E00E94060EA8
:1012D0007C0188E6F70180838BE892E0928381832A
:1012E000138280E290E095838483F0920B02E09277
:1012F0000A020E944D0201E0F7010383C7010E9428
:1013000093031C8680910A0290910B02FC012481B8
:101310003581232B89F02081009367022093890275
:101320001092680210928A0221E041E050E0BE0172
:10133000645F7F4F0E94750341E050E0CE0101964B
:101340007C01BC0180910A0290910B020E94B004C2
:10135000898190E0880F892F881F990B892B09F4C8
:10136000A4C04BE050E061E770E0C7010E94C90DE6
:10137000CE010A960E94FB01082FE981E154E33176
:1013800018F50E2E000CFF0BE853F64F0C94000ED0
:10139000180BE409E4092C0BE4092E0BE409E40919
:1013A000E409DB09E409E4091F0B2A0B280BE40913
:1013B000E409E409260B8A8111E0813629F08B814A
:1013C00016E08E3609F017E0CE0105960E94FB016B
:1013D000D82E48E050E068E670E0C7010E94C90DD1
:1013E000C7010E94FB01C82ECE0104960E94FB019A
:1013F000B82ECE0107960E94FB01382F86E0F70138
:1014000011928A95E9F72AE0832F622F0E94D20D6C
:10141000982F880F890F880F830F8A838B2D0E9446
:10142000D20D982F880F890F880F8B0D8B838C2DF1
:101430000E94D20D982F880F890F880F8C0D8C83F6
:101440008D2D0E94D20D982F880F890F880F8D0D3A
:101450008E83812F0E94D20D982F990F890F880FAC
:10146000180F1F83802F0E94D20D982F880F890F8D
:10147000880F800F888780910A0290910B02FC01EF
:10148000248135812830310580F0208131E030938E
:101490006702209389021092680210928A0221E06A
:1014A00048E050E0B7010E94750360E080E00E94D0
:1014B0000B0683E491E00E94A30468EE73E080E0F1
:1014C00090E00E946F010E943A0688248A94982C2A
:1014D000540117E1412E512CF2EA6F2EF0E07F2EDD
:1014E000A6EBCA2EA0E0DA2E198200910A02109112
:1014F0000B02F80184819581892BC9F0808191E0EC
:1015000090936702809389021092680210928A0277
:1015100020E041E050E0B701C8010E947503882334
:1015200031F047E050E0B701C8010E94B004F981F2
:10153000FD874A818B81282F30E074E0359527950F
:101540007A95E1F7922F990F990F222E291A220CE2
:10155000280E842F90E0E4E095958795EA95E1F7D1
:10156000982F990F990F082F091B000F040F10E0F7
:1015700080910602882309F41AC180910902811121
:1015800016C180910102811112C1809101019091D7
:1015900002012816190609F00AC1809104029091EF
:1015A00005028017910709F002C181E080930902CA
:1015B000809301022FB7F89480910D0290910E0252
:1015C000A0910F02B09110022FBF8093FD01909364
:1015D000FE01A093FF01B0930002809100018630CC
:1015E00009F03EC0EDE7F0E0349037FCDEC061E08A
:1015F00086E00E941901332009F4A7C0F2E03F12EF
:10160000B8C08091B100887F83608093B10089EF7A
:101610008093B3008092F1019092F201A092F301C5
:10162000B092F40180917000826080937000BDC020
:101630008B8114E0823709F4C7CE18E0C5CE8B81C8
:1016400013E0823709F4C0CE15E0BECE19E0BCCE5F
:101650001AE0BACE1BE0B8CE1CE0B6CE12E0B4CE93
:101660008F3F09F0A2C086E080930001EDE7F0E033
:101670003490832DFFEF3F1609F497C021E0321616
:1016800021F1321650F0823009F43CC037FC8DC095
:1016900061E086E00E941901B1CF14BC15BC84B58D
:1016A000826084BD85B5816085BDF3018491E82F9A
:1016B000F0E0EE0FFF1FE857FF4F85919491F60180
:1016C00084918093F001312C92CF1092800010927F
:1016D00081008091810088608093810080918100E9
:1016E000816080938100F3018491E82FF0E0EE0F98
:1016F000FF1FE857FF4F85919491F60184918093E5
:10170000EF0175CF1092B0001092B1008091B0003F
:1017100082608093B0008091B10081608093B100BD
:10172000F3018491E82FF0E0EE0FFF1FE857FF4F21
:10173000859194919093EE018093ED01F60184914F
:101740008093EC0142E0342E52CF85B5887F8360D0
:1017500085BD8CE787BD8092F9019092FA01A09235
:10176000FB01B092FC0180916E00826080936E005C
:101770001CC021E0321282C080918100887F81608C
:10178000809381008FE39FE190938900809388008C
:101790008092F5019092F601A092F701B092F801C3
:1017A00080916F00826080936F000E943A06809162
:1017B0000902882309F440C02FB7F89480910D02E4
:1017C00090910E02A0910F02B09110022FBF409194
:1017D000FD015091FE016091FF0170910002841B98
:1017E000950BA60BB70B813D9740A105B10558F0AD
:1017F0001092090286E00E94A1010E943A0610920E
:1018000008021092070282E00E94C200892B09F0B0
:101810003EC01092090286E00E94A10110920602C9
:101820000E943A0610920802109207026CE271E0E0
:1018300080E090E00E946F01809104029091050287
:101840008017910711F01092010282E00E94C200FD
:1018500020910902892B71F1222309F440C060E034
:1018600080E00E940B0687E891E00E94A30461E0FB
:1018700080E00E940B0688E991E080C092E0391672
:1018800021F0311092CF8FE365CF8FE3C1CE83E09B
:101890000E94C200892B09F4BCCF84E00E94C200E0
:1018A000892B09F4B6CF85E00E94C200892B09F488
:1018B000B0CFC2CF2111D3CF6CE271E080E090E0D5
:1018C0000E946F0180910702909108020196833077
:1018D00091050CF056C09093080280930702809106
:1018E000070290910802009709F053C03D84E894E4
:1018F00037F860E080E00E940B0684E591E00E94EA
:10190000A304822D90E00E9450068BE591E00E9496
:10191000A304C8010E9450068BE591E00E94A30435
:10192000832D90E024E0959587952A95E1F7982FEF
:10193000990F990F891B880F830D90E00E94500624
:1019400061E080E00E940B068DE591E00E94A30417
:1019500080910101909102010E9450068BE591E077
:101960000E94A30480910402909105020E945006F7
:1019700080910602882351F081E391E00E94A30444
:10198000B1C01092080210920702A9CF86E391E03D
:10199000F5CF8130910509F0D8C00E943A0660E089
:1019A00080E00E940B0684E691E00E94A30461E0BF
:1019B00080E00E940B0680910101909102010E943B
:1019C00050068BE591E00E94A3048091040290915F
:1019D00005020E94500685E791E00E94A304009151
:1019E00002021091030261E080E00115110509F087
:1019F00083E00E940B0680919D02982F9160909346
:101A00009D0289600E94050683E00E94C200892B26
:101A100081F46AEF70E080E090E00E946F0181E065
:101A200090E0012B11F090E080E09093030280930E
:101A3000020284E00E94C200892BD1F468EC70E0BD
:101A400080E090E00E946F01809102029091030279
:101A5000892B09F054C080910101909102010196F7
:101A6000883191050CF046C09093020180930101EA
:101A700085E00E94C200892BC1F468EC70E080E030
:101A800090E00E946F018091020290910302892BE5
:101A900009F04CC08091010190910201019797FDDE
:101AA00040C0909302018093010182E00E94C20035
:101AB000892B09F07CCF6CE271E080E090E00E941D
:101AC0006F0180919D028E7F80939D0288600E94AD
:101AD00005060E943A0681E08093060210920802F1
:101AE0001092070280E090E0892B09F4FDCC0E945F
:101AF0000000F2CC1092020110920101B9CF809146
:101B000004029091050201968C3391052CF4909378
:101B1000050280930402ACCF1092050210920402D9
:101B2000A7CF5092020140920101BFCF80910402E1
:101B300090910502019797FD05C09093050280934F
:101B40000402B3CF8BE390E0F8CF029759F680916F
:101B5000060291E08927809306020E943A0660E01F
:101B600080E00E940B068CE791E00E94A304809124
:101B70000602882359F08BE391E00E94A30468EEEB
:101B800073E080E090E00E946F01A8CF8FE391E0C6
:101B9000F4CFFB01DC0102C005900D924150504092
:101BA000D8F70895991B79E004C0991F961708F09B
:101BB000961B881F7A95C9F780950895A1E21A2E81
:101BC000AA1BBB1BFD010DC0AA1FBB1FEE1FFF1FE1
:101BD000A217B307E407F50720F0A21BB30BE40B31
:101BE000F50B661F771F881F991F1A9469F7609578
:101BF0007095809590959B01AC01BD01CF01089532
:101C0000EE0FFF1F0590F491E02D09940F931F93A1
:101C1000CF93DF938230910510F482E090E0E09161
:101C2000A602F091A70230E020E0B0E0A0E03097FB
:101C300099F42115310509F44AC0281B390B2430C9
:101C40003105D8F58A819B816115710589F1FB0108
:101C500093838283FE0111C04081518102811381EF
:101C600048175907E0F04817590799F4109761F0A1
:101C700012960C93129713961C933296CF01DF9114
:101C8000CF911F910F9108950093A6021093A70280
:101C9000F4CF2115310551F04217530738F0A9014F
:101CA000DB019A01BD01DF01F801C1CFEF01F9CFDE
:101CB0009093A7028093A602CDCFFE01E20FF31FFF
:101CC000819391932250310939832883D7CF209172
:101CD000A4023091A502232B41F4209105013091FB
:101CE00006013093A5022093A402209103013091B4
:101CF00004012115310541F42DB73EB7409107018C
:101D000050910801241B350BE091A402F091A5022B
:101D1000E217F307A0F42E1B3F0B2817390778F0C2
:101D2000AC014E5F5F4F2417350748F04E0F5F1F21
:101D30005093A5024093A402819391939FCFF0E02A
:101D4000E0E09CCFCF93DF930097E9F0FC0132975E
:101D500013821282A091A602B091A702ED0130E099
:101D600020E01097A1F420813181820F931F2091F0
:101D7000A4023091A5022817390709F061C0F09339
:101D8000A502E093A402DF91CF910895EA01CE1756
:101D9000DF07E8F54A815B819E0141155105B1F7E6
:101DA000E901FB83EA8349915991C40FD51FEC17D0
:101DB000FD0761F4808191810296840F951FE901EE
:101DC00099838883828193819B838A83F0E0E0E01A
:101DD00012968D919C9113970097B9F52D913C9196
:101DE0001197CD010296820F931F2091A40230918A
:101DF000A5022817390739F6309751F51092A70236
:101E00001092A602B093A502A093A402BCCFD383E4
:101E1000C28340815181840F951FC817D90761F48F
:101E20004E5F5F4F88819981480F591F51834083CE
:101E30008A819B81938382832115310509F0B0CF7C
:101E4000F093A702E093A6029ECFFD01DC01C0CF74
:0A1E500013821282D7CFF894FFCF5F
:101E5A00FF06000000A802800000004000140054A1
:101E6A0000000000000F04E2035204B803DB03C8B9
:101E7A0003B903000000004A06CD015204FA0130FA
:101E8A0000204F4E2000204F464600424154005445
:101E9A00415400444F4E4720484F2042414F20545E
:101EAA004855430054696D653A20003A00416C6117
:101EBA00726D2000434149204441542042414F2041
:101ECA0054485543002020202020200042616F20E2
:101EDA00746875633A20002121212042414F205421
:101EEA0048554320212121004E68616E206E757489
:081EFA0020646520746174008E
:00000001FF
