:100000000C9462000C948A000C948A000C948A0070
:100010000C948A000C948A000C948A000C948A0038
:100020000C948A000C948A000C948A000C948A0028
:100030000C948A000C948A000C948A000C948A0018
:100040000C94C1030C948A000C9431040C940B049E
:100050000C948A000C948A000C948A000C948A00F8
:100060000C948A000C948A000000000024002700F1
:100070002A0000000000250028002B0000000000DE
:1000800023002600290004040404040404040202DA
:100090000202020203030303030301020408102007
:1000A0004080010204081020010204081020000012
:1000B0000008000201000003040700000000000027
:1000C0000000630411241FBECFEFD8E0DEBFCDBF18
:1000D00021E0ACE2B1E001C01D92A83DB207E1F71A
:1000E00011E0A0E0B1E0E6E8FBE002C005900D926F
:1000F000AC32B107D9F710E0C2E6D0E004C02197D6
:10010000FE010E94BB05C136D107C9F70E94A904B0
:100110000C94C1050C940000833081F028F48130E8
:1001200099F08230A9F008958730A9F08830C9F09D
:100130008430B1F4809180008F7D03C08091800075
:100140008F7780938000089584B58F7784BD08955C
:1001500084B58F7DFBCF8091B0008F778093B00006
:1001600008958091B0008F7DF9CFCF93DF93282F32
:1001700030E0F901E255FF4F8491F901E656FF4F57
:10018000D491F901EA57FF4FC491CC23A1F081111A
:100190000E948C00EC2FF0E0EE0FFF1FE458FF4FA1
:1001A000A591B491EC91ED2381E090E009F480E019
:1001B000DF91CF91089580E090E0FACF1F93CF9325
:1001C000DF93282F30E0F901E255FF4F8491F901C8
:1001D000E656FF4FD491F901EA57FF4FC491CC2363
:1001E000A9F0162F81110E948C00EC2FF0E0EE0F89
:1001F000FF1FEE58FF4FA591B4918FB7F894EC9183
:10020000111108C0D095DE23DC938FBFDF91CF9111
:100210001F910895DE2BF8CFCF93DF9390E0FC0180
:10022000E656FF4F24918A579F4FFC018491882303
:10023000D1F090E0880F991FFC01E859FF4FA5917C
:10024000B491FC01EE58FF4FC591D49161110EC0DD
:100250009FB7F8948C91E22FE0958E238C932881A0
:10026000E223E8839FBFDF91CF9108958FB7F89481
:10027000EC91E22BEC938FBFF6CF3FB7F8948091CF
:100280002D0190912E01A0912F01B091300126B542
:10029000A89B05C02F3F19F00196A11DB11D3FBFBE
:1002A000BA2FA92F982F8827BC01CD01620F711D8D
:1002B000811D911D42E0660F771F881F991F4A9587
:1002C000D1F708958F929F92AF92BF92CF92DF9213
:1002D000EF92FF926B017C010E943D014B015C019A
:1002E000C114D104E104F104B9F00E943D01681980
:1002F00079098A099B09683E73408105910580F35D
:1003000021E0C21AD108E108F10888EE880E83E0E6
:10031000981EA11CB11CE4CFFF90EF90DF90CF900E
:10032000BF90AF909F908F9008957F928F929F92F1
:10033000AF92BF92CF92DF92EF92FF920F931F93F3
:10034000CF93DF93EC016091D4017091D50180913E
:10035000D6019091D7010E94620161E08091D201A3
:100360000E940C0160E08091D2010E94DE0062E1F7
:1003700070E080E090E00E94620161E08091D20133
:100380000E94DE008BE990E00197F1F760E0809138
:10039000D2010E940C018FB7F894C0903101D09027
:1003A0003201E0903301F09034018FBF8091D2018F
:1003B0000E94B500019729F52FB7F894809131017B
:1003C00090913201A0913301B09134012FBF8C196B
:1003D0009D09AE09BF09893E9340A105B10530F3DF
:1003E0000DEF10E0C801DF91CF911F910F91FF90A9
:1003F000EF90DF90CF90BF90AF909F908F907F90C5
:1004000008958091D2010E94B5008C01892B41F79B
:100410002BE3E22EFF24F394C7010197F1F78091BB
:10042000D2010E94B5000197D9F6C7010197F1F7F3
:100430006E014E0185E0880E911C93E7A92EB12C28
:1004400087E0E82EF12C712C8091D2010E94B5003A
:10045000892BD1F3C5010197F1F78091D2010E9458
:10046000B5008130910531F40E2C01C0880F0A943B
:10047000EAF7782A8091D2010E94B5000197D1F362
:10048000E1E0EE1AF10800F7F60171926F01FDEF5D
:100490007F1609F4A5CFC814D90491F64C812881A0
:1004A0008981280F3327331F8A81280F311D8B81C3
:1004B000820F932F911D99274817190609F492CF9F
:1004C0000EEF10E08FCFAF92BF92CF92DF92EF92FC
:1004D000FF920F931F93CF93DF936C017B018B01EE
:1004E000040F151FEB015E01AE18BF08C017D1073E
:1004F00059F06991D601ED91FC910190F081E02DC8
:10050000C6010995892B79F7C501DF91CF911F911C
:100510000F91FF90EF90DF90CF90BF90AF90089534
:10052000FC01538D448D252F30E0842F90E0821BF9
:10053000930B541710F0CF96089501970895FC017E
:10054000918D828D981761F0A28DAE0FBF2FB11DD6
:100550005D968C91928D9F5F9F73928F90E008952E
:100560008FEF9FEF0895FC01918D828D981731F0E8
:10057000828DE80FF11D858D90E008958FEF9FEF3C
:100580000895FC01918D228D892F90E0805C9F4F12
:10059000821B91098F739927089585E391E00E944A
:1005A000C10221E0892B09F420E0822F089580E028
:1005B00090E0892B29F00E94CD0281110C9400005B
:1005C0000895FC01A48DA80FB92FB11DA35ABF4FE8
:1005D0002C91848D90E001968F739927848FA68942
:1005E000B7892C93A089B1898C91837080648C9396
:1005F000938D848D981306C00288F389E02D808145
:100600008F7D80830895EF92FF920F931F93CF9376
:10061000DF93EC0181E0888F9B8D8C8D98131AC03D
:10062000E889F989808185FF15C09FB7F894EE8924
:10063000FF896083E889F989808183708064808381
:100640009FBF81E090E0DF91CF911F910F91FF90CC
:10065000EF900895F62E0B8D10E00F5F1F4F0F7374
:100660001127E02E8C8D8E110CC00FB607FCFACF2F
:10067000E889F989808185FFF5CFCE010E94E102EA
:10068000F1CFEB8DEC0FFD2FF11DE35AFF4FF08200
:100690009FB7F8940B8FEA89FB8980818062CFCF66
:1006A000CF93DF93EC01888D8823B9F0AA89BB89A9
:1006B000E889F9898C9185FD03C0808186FD0DC094
:1006C0000FB607FCF7CF8C9185FFF2CF808185FFB5
:1006D000EDCFCE010E94E102E9CFDF91CF910895E5
:1006E000FC0101900020E9F73197AF01481B590B3D
:1006F000BC0185E391E00C9463028F929F92AF92CC
:10070000BF920F931F93CF93DF93CDB7DEB7A1971F
:100710000FB6F894DEBF0FBECDBF19A2423008F469
:100720004AE08E010F5D1F4F842E912CB12CA12C1D
:10073000A50194010E949905E62FB901CA01EA308A
:10074000F4F4E05DD801EE938D01232B242B252BAF
:1007500079F790E080E0109719F0CD010E947003C6
:10076000A1960FB6F894DEBF0FBECDBFDF91CF913B
:100770001F910F91BF90AF909F908F900895E95C6B
:10078000E1CF1F920F920FB60F9211242F933F9338
:100790008F939F93AF93BF938091310190913201DA
:1007A000A0913301B091340130912C0123E0230F4B
:1007B0002D3758F50196A11DB11D20932C01809372
:1007C000310190933201A0933301B09334018091B1
:1007D0002D0190912E01A0912F01B0913001019631
:1007E000A11DB11D80932D0190932E01A0932F0187
:1007F000B0933001BF91AF919F918F913F912F9115
:100800000F900FBE0F901F90189526E8230F0296A9
:10081000A11DB11DD2CF1F920F920FB60F921124BE
:100820002F933F934F935F936F937F938F939F93F8
:10083000AF93BF93EF93FF9385E391E00E94E102B2
:10084000FF91EF91BF91AF919F918F917F916F91A8
:100850005F914F913F912F910F900FBE0F901F907E
:1008600018951F920F920FB60F9211242F938F930A
:100870009F93EF93FF93E0914501F09146018081B2
:10088000E0914B01F0914C0182FD1BC09081809161
:100890004E018F5F8F7320914F01821741F0E091DD
:1008A0004E01F0E0EB5CFE4F958F80934E01FF917F
:1008B000EF919F918F912F910F900FBE0F901F90EE
:1008C00018958081F4CFCF93DF93E5E3F1E01382B5
:1008D000128288EE93E0A0E0B0E084839583A68343
:1008E000B78384E091E09183808385EC90E09587E5
:1008F000848784EC90E09787868780EC90E0918BEA
:10090000808B81EC90E0938B828B82EC90E0958BD6
:10091000848B86EC90E0978B868B118E128E138ED3
:10092000148EC2EDD1E082E090E09983888384EF59
:1009300091E0A0E0B0E08A839B83AC83BD8361E05B
:1009400082E00E940C0161E08881DF91CF910C94DC
:10095000DE00CF93DF9300D000D01F92CDB7DEB77B
:10096000789484B5826084BD84B5816084BD85B58A
:10097000826085BD85B5816085BD80916E00816096
:1009800080936E001092810080918100826080933C
:10099000810080918100816080938100809180003E
:1009A0008160809380008091B10084608093B10069
:1009B0008091B00081608093B00080917A00846063
:1009C00080937A0080917A00826080937A0080918F
:1009D0007A00816080937A0080917A0080688093A9
:1009E0007A001092C100E0914501F091460182E049
:1009F0008083E0914101F09142011082E091430136
:100A0000F09144018FEC808310924D01E0914901F7
:100A1000F0914A0186E08083E0914701F09148011E
:100A2000808180618083E0914701F091480180815D
:100A300088608083E0914701F0914801808180685F
:100A40008083E0914701F091480180818F7D808310
:100A500082E191E00E94700381E291E00E947003C4
:100A600080E0A82E80E0B82ECE0101960E9495016C
:100A70006C01892B11F4CB80D12CCE0101960E9400
:100A800095018C01892B11F4098110E0C6018D5F5D
:100A900091090297E0F184E291E00E9470030D2C2D
:100AA000000CEE08FF084AE0C701B601F7FE0DC0D2
:100AB0006DE285E391E00E94030366277727CB016F
:100AC0006C197D098E099F094AE00E947D0387E227
:100AD00091E00E9470036801110FEE08FF084AE0E0
:100AE000C701B601F7FE0DC06DE285E391E00E94FB
:100AF000030366277727CB016C197D098E099F09AF
:100B00004AE00E947D0381E291E00E94700360ED63
:100B100077E080E090E00E946201A114B10409F442
:100B2000A3CF0E94CD02882309F49ECF0E9400002B
:100B30009BCFA1E21A2EAA1BBB1BFD010DC0AA1F51
:100B4000BB1FEE1FFF1FA217B307E407F50720F036
:100B5000A21BB30BE40BF50B661F771F881F991FB1
:100B60001A9469F760957095809590959B01AC01FA
:100B7000BD01CF010895EE0FFF1F0590F491E02D08
:060B80000994F894FFCF78
:100B8600000000000303630290025003C1029F02AB
:100B9600B30244485431312052656164792E2E2EB9
:0C0BA600000D0A00543A0020483A0000FC
:00000001FF
